S01600004465765F726669643132356B487A2E7372656326
S3150800000000100020C10000080D010008D90B0008E7
S3150800001000000000000000000000000000000000D2
S315080000200000000000000000000000000D010008AC
S3150800003000000000000000000D010008710A000819
S315080000400D0100080D0100080D0100080D0100084A
S315080000500D0100080D0100080D010008810C0008BB
S315080000600D0100080D0100080D0100080D0100082A
S315080000700D0100080D0100080D0100080D0100081A
S31508000080DD0F00080D0100080D0100080D0100082C
S315080000900D0100080D010008BD0D00080D0100083E
S315080000A00D0100080D0100080D0100080D010008EA
S315080000B00D0100080D0100080D0100080D010008DA
S315080000C00C4885460C480D490D4A002302E0D458D1
S315080000D0C4500433C4188C42F9D30A4A0A4C002384
S315080000E001E013600432A242FBD300F0CBFC00F01F
S315080000F055F8FEE700100020000000200800002048
S31508000100DC24000808000020D0010020FEE708B51E
S3150800011001F040F808BD000010B50378041C132B45
S3150800012011D1411C0222194802F0ABF92379E27871
S315080001301B021343FA2292005343154A1360012205
S31508000140144B1A700AE00E2B0AD1837842781B02E8
S315080001501343FA22920053430D4A1360002013E01A
S31508000160142B0FD1042400F053FD013C0A4800F07B
S3150800017025FDA4B200F052FD074800F01FFD002C33
S31508000180F1D1EBE70B20404210BDC0460400002029
S315080001900000002008000020A0860100F0B54F4BA3
S315080001A04F4C8BB0636000F03FFD206000F0DEFF2F
S315080001B000F0E6FF4B48002100F042FF00F0BEFFCA
S315080001C000F09AF800F0C6FF062802D100F020FDDC
S315080001D0F8E700F023FD01F035F8051E20D0036886
S315080001E0482B09D90830211C082202F03BF90028BF
S315080001F004D1281C10300FE0102B0AD9281C3A49C4
S315080002000830022202F02EF9002807D1281C0A30ED
S3150800021002E0072B02D80830FFF77EFF01F036F818
S31508000220324D2B78002B15D1314E3368002B11D166
S3150800023002A8031C221C82CA82C30C230372103331
S31508000240437258210C3B0122837200F0CFFF294BE1
S315080002501B6833602E78012E1BD1254D2B68002B89
S3150800026017D12149022202A802F00BF90B2302AA90
S315080002709370101C1133D37000F0C8FB582302AAE0
S315080002805373101C7021321C00F0B0FF194B1B6809
S315080002902B6000F0E9FF002894D0031C0A250833D8
S315080002A0009303684768019300F0B2FC009801992F
S315080002B03A1C00F0E9FD061C00F0B0FC002E04D044
S315080002C0013D00F0A5FC002DEED100F0A7FC002EA4
S315080002D000D077E700F0F4FF74E7C046151515154A
S315080002E0BC0100200F0100080400002008000020BF
S315080002F0CC0100200000002090238021DB051A682D
S3150800030089010A43A02110B51A601A6AC9040A436A
S315080003101A6280228021D200DA60164A890293691D
S3150800032001240B4300219361134B8020996280219D
S31508000330FF31D962C0395963196A0002214319622B
S31508000340596C08436021586498690843986118688D
S315080003505039884318601968214319608021D36988
S3150800036049000B43D3613022044B9A62044ADA628D
S3150800037010BDC04600100240004401400020004065
S31508000380D82700000022F0B5394CA544002303A95C
S315080003908B520232142AF9D11820002102AA121807
S315080003A0D1520233142BF7D10A1C9023DB051B69A3
S315080003B0304C9B0607D4FA23626ADB0092B29A4253
S315080003C0F3D9002050E000230EA863620A52902356
S315080003D0DB051B699B06DB0F06D0FA23626ADB0086
S315080003E092B29A42F3D9ECE7401863624280FE2043
S315080003F0043140008142D8D11F4C0022101C510004
S315080004000EAD4D5BA54217D8A84215D200210F1C88
S3150800041096B2019608AE8E5BB446019EB44500D1ED
S31508000420012702311429F3D1002F05D1684608A9FE
S315080004308088C9184882281C0132FE2ADFD103AAFF
S31508000440D218023B50821A1C041C1432D5D1002340
S31508000450181C03AAD25A0233801880B2142BF8D17A
S315080004600A2100F051FF80B28F239B009D44F0BD06
S31508000470C4FDFFFF00200040FFFF00000122F0B589
S31508000480AB4C8DB02368134323609023DB051B69AF
S315080004909B0604D5FA23626A1B019A42F5D9002500
S315080004A06562FFF76FFF43089BB20093032343433C
S315080004B09B109BB20493052343439B109BB2059361
S315080004C01F23AC462A1C02900693019500236362FB
S315080004D09021C9050969890606D4FA21636AC90003
S315080004E09BB28B42F4D915E104998B4211D80021AD
S315080004F061629021C90509698906C90F06D0FA21E2
S31508000500636AC9009BB28B42F3D903E1049883421C
S3150800051003D9009B0022636205E0013292B2616250
S31508000520802AD5D9F6E0636A02999BB28B4202D932
S3150800053000207F49486204998B4235D99021C90524
S3150800054009698906C90F05D06146013189B28C4609
S31508000550012100E08C46013292B2012918D190217E
S31508000560C90509698906C90F06D0FA21636AC9004F
S315080005709BB28B42F3D9CDE00598834210D86162CD
S3150800058012E0FA21636AC9009BB28B4200D9C1E026
S315080005909021C90509698906F3D505998B4201D9C0
S315080005A0009B00E000236362802A00D9B2E063461C
S315080005B0092BB8D10021624600275E4E0391402AD6
S315080005C05AD0636A02989BB2834202D900255848DA
S315080005D0456204988342F2D99020C0050569002037
S315080005E0AD0607D50130051C35430795039D079EC3
S315080005F0454003950132B6197F4192B2012817D1B9
S315080006009020C00500698006C00F06D0FA20636AEC
S31508000610C0009BB28342F3D971E0059DAB420FD867
S31508000620606211E0FA20636AC0009BB2834266D812
S315080006309020C00500698006F4D50598834201D943
S31508000640009B00E0002363620131C9B20529B6D1D7
S315080006503C2AB4D8039B002B0AD0069B013BDBB28D
S31508000660069301230193069B002B00D02EE751E049
S31508000670032303990193A2E77208F907114380221D
S315080006807B0812061A430E1C171C00250522301C6F
S315080006906A43391C00F0CAFE1F23184009AB585597
S315080006A001350B2DF2D108AB1B7901219C460020A0
S315080006B0012500228D400092019509ADAD186D788F
S315080006C0019B2B4203D0009B0133DBB2009301321E
S315080006D00A2AF2D165460D41009B093A1340154294
S315080006E002D0002B05D001E0002B02D103230028FD
S315080006F001D00120022301310529D9D108E0019B47
S31508000700032B07D1402A07D101220B4B1A7003E0AD
S31508000710032BF9D000260027C820000100F04EFA66
S315080007200122301C391C2368934323600DB0F0BDA9
S3150800073000200040FE030000090000200122F0B559
S31508000740AD4C8DB023680390134323600094902327
S31508000750DB051B699B0605D5009B5A6AFA231B0114
S315080007609A42F4D90023009A5362FFF70BFE7C23C2
S31508000770FF33984208D801F0CDFCA04AA04B00F000
S315080007807FFE00F05FFE80B203235843801083B2D9
S31508000790002204931F230693131C0592019200213D
S315080007A000988C4641629020C0050569AD06E80FA1
S315080007B0029090202025C0050169029C294049091C
S315080007C0A14208D10099496A89B28C46FA21C90022
S315080007D08C45EED9F1E00669009835406D09E9B215
S315080007E0029100214162049801339BB2844503D9E2
S315080007F0814B596281230BE0802BDAD9DDE0009921
S31508000800496A89B28C46FA21C9008C4500D9D4E0D8
S3150800081090202025C0050169029C29404909A1426A
S31508000820EDD00669049835406D09E9B202910021B8
S3150800083084450BD90398884204D10198013080B2C7
S31508000840019000E001910098416210E00098416231
S31508000850012A08D1039A002A07D0019A013292B2D6
S3150800086001920A1C03E0012201E0039A0192013B6E
S315080008709BB2002B00D1A0E001990929C8D100211B
S315080008800027081C019B5F4E90242025E405246957
S315080008902C40029D6409AC4208D1009C656AACB242
S315080008A0FA25A446ED00AC42EED983E09024E4058F
S315080008B02569202425406D09ECB20294049CA445C0
S315080008C010D9039C002C06D101252C1C3443261C68
S315080008D00797079F684001330131B6197F419BB2DC
S315080008E0C9B213E0012A10D1039C002C03D0141CB2
S315080008F03443261C50400022009C01330131B619AE
S315080009007F419BB2C9B2626200E001220025009CC9
S31508000910656205290ED13C2B0CD8002859D00699BA
S315080009200139C9B20691012105910699002900D01D
S3150800093035E742E0402BA7D17208F9071143802218
S315080009407B0812061A430E1C171C00250522301CAC
S315080009506A43391C00F06AFD1F23184009AB585535
S3150800096001350B2DF2D108AB1B7901219C460020DD
S31508000970012500228D40131C09ACA4186478254271
S3150800098001D00133DBB201320A2AF5D165460D41A1
S31508000990093A1340154202D0002B05D001E0002B7E
S315080009A002D10323002801D00120022301310529A1
S315080009B0DED108E0059B032B0FD00022124B002640
S315080009C01A70002709E0032BF7D101220E4B1A7083
S315080009D003E00324011C059456E7C820000100F033
S315080009E0EDF80122301C391C009B1B689343009AC2
S315080009F013600DB0F0BDC0460020004033333333DA
S31508000A003333EB3FFE03000009000020F7B501254C
S31508000A10164C00902570FFF731FD071C0E1C084385
S31508000A200FD102232370FFF789FE031C071C0E1C37
S31508000A300B4306D10333281C2370FFF77FFE071CE0
S31508000A400E1C0025EA00009B52425B193832381CFE
S31508000A50311C019300F0EAFC019B01351871082D41
S31508000A60F0D12378009A1373F7BDC046C40100205D
S31508000A70034B1A68002A02D01A68013A1A607047AE
S31508000A80CC01002001213F4B10B51A683E480A43A5
S31508000A901A6059683D4A0A405A6019683C4A0A4031
S31508000AA01A6019683B4A0A401A6059683A4A0A4065
S31508000AB00F215A60DA6A8A43DA62196B374A0A40A2
S31508000AC01A63596B364A0A405A63002235499A60B6
S31508000AD0013ACA67C02149004250334A7039FF3982
S31508000AE0116080215A6849025A601A680A431A60D6
S31508000AF01A6824499203FBD548682C4A0240882084
S31508000B004003024380204A600A68400402430A60A0
S31508000B101A681C499201FBD503204A6882430138AA
S31508000B2002434A600C225968164811400829F9D12F
S31508000B308022436992021343822490224361002350
S31508000B40D205E404536114608024E40054608024D0
S31508000B5064039360D4608024136253624269E4029A
S31508000B6022434261124A536111600831536093600F
S31508000B70D36011620F4A10495160936003331360C2
S31508000B8010BDC0460010024000E100E00CB8FF802E
S31508000B90FFFFF6FEFFFFFBFFFF7FC0FFACFEFFFF78
S31508000BA0FEFFFEFF04E100E000200240FFFFC0FF59
S31508000BB00004004810E000E06F170000013809D370
S31508000BC00423C046C046C046C046C046013B002B6B
S31508000BD0F7D1F3E77047000038B590248025E4057F
S31508000BE0AD01A5610348FFF7E9FFA5620148FFF7D4
S31508000BF0E5FFF2E7E0930400802290239201DB05EB
S31508000C009A617047802290239201DB059A627047A9
S31508000C10802290239201DB059A61704780229023F7
S31508000C209201DB059A627047042210B50F4B1048F3
S31508000C301968CBB258400F4B013A5843090A002AA3
S31508000C40F7D10D4A11680422CCB26040013A5843E4
S31508000C50090A002AF8D1094A11680422CCB2604070
S31508000C60013A5843090A002AF8D110BDACF7FF1F0C
S31508000C70C59D1C8193010001B0F7FF1FC0F7FF1F38
S31508000C8080234349434A9B0070B5486A90265361BE
S31508000C900022F6054A6232693F4C520505D4FB3BF1
S31508000CA0FF3B237003330B6071E001250A682A4075
S31508000CB052D0326981B2134004D017228A429B412E
S31508000CC05B4202E046228A425B412278DB01D2B2CD
S31508000CD0012A1DD0022A5AD1304A1068FF280CD89A
S31508000CE02F49C208895C0722024091400A1C8021CC
S31508000CF00A409A422BD0042304E02A4A12789A42E0
S31508000D0025D0052300222370274B1A605A621EE05D
S31508000D10224A26491068FF2812D80A785A40D2B2C1
S31508000D2054B25200002C01DA632462400A7007228A
S31508000D30024013411E4CC108625C1343635406E02B
S31508000D40FF220A70F0211B4A11701B4A1370134ABE
S31508000D501368013313601AE00920086031691942E3
S31508000D6013D001210D4B49421960114B1A605A6084
S31508000D709A60DA601A615A619A61DA61FFF73CFF94
S31508000D802378002B03D1257001E00323237070BD5F
S31508000D9000480140000401403000002044000020C3
S31508000DA04800002068000020000400407000002071
S31508000DB00C00002069000020400000200022294B7A
S31508000DC070B51A619022D2051169274C490503D4DA
S31508000DD006222270033205E01269920504D5032221
S31508000DE0227006321A603CE020780138042834D88C
S31508000DF000F080FA032E333030001C4B196808299E
S31508000E0001D81B4B1CE00A1C093AF62A17D8194ABE
S31508000E101278002A13D1164A1568002D1DD00839F4
S31508000E201960072314480B4005D0FF22DA40CE0884
S31508000E30835D93438355114B1A78A8470DE0104BF1
S31508000E401B68002B09D00D4A0B481278984704E016
S31508000E50002200E022780B4B1A7000232370FFF75C
S31508000E60D1FE70BD0048014030000020440000203B
S31508000E702C000020700000200C00002040000020FC
S31508000E803400002038000020F0B54B1E85B00390D2
S31508000E900292F72B00D98CE001220A4000D088E0A4
S31508000EA0FF23141C01918C421AD00398E710C05DE9
S31508000EB0072684468020051C264035412E1C65469B
S31508000EC02E4200D0434018405B00002801D0632022
S31508000ED04340600702D165463848C5550134E2E704
S31508000EE0082900D908225418019AA24214D20721C7
S31508000EF0019A324FD61011408022101CC8408446F1
S31508000F001A406546CA40B85D5B00A8431043019A7B
S31508000F10B85501320192E7E7FA27BF00284D2E7827
S31508000F20F6B2002E0CD00A20013FFFF747FE002F2D
S31508000F30F4D1052E01D97F203CE0224B98573AE0A0
S31508000F40029A214B002A03D0802212211A7003E04C
S31508000F506A465321127A1A7000221C4B1A601C4BDF
S31508000F601C601C4BFA241E1C5A621A6106321A644B
S31508000F700332D9621A60073A2A70E4002B78022BEA
S31508000F8010D10520013CFFF719FE002CF6D190235D
S31508000F903460DB0574621B695B0500D406342C706B
S31508000FA0062007E00C4B1B78052BC4D8054AD056FB
S31508000FB001E00520404205B0F0BDC04648000020CB
S31508000FC03000002094240008680000203C0000201F
S31508000FD06C0000200004004038000020002014495E
S31508000FE0144AF0B50B6810611348006883421ED294
S31508000FF0072480201C40E040041C104DD8082E5CB5
S315080010001920264200D11338072680275C1C264063
S315080010101064E4082D5DF740041C4D343D4201D0B0
S315080010200C30041C09200233D46210600B60F0BD3A
S315080010303C000020000400406C000020480000200E
S31508001040F7B50090019172B601201E24304A314945
S315080010509369034393610B69A3430B612E4BE334F6
S315080010601968FF3421431960996821439960D96842
S315080010702143D9600534294BFF3419590902090A55
S315080010801951802119600224D16908262143D161AA
S315080010902F2500210627224C26606162A562276457
S315080010A04D37E762E827FF01E76180277F0127625E
S315080010B0C4276061BF00E060DC59251CFF24A543F6
S315080010C0DD51802464021C6080279469FF023C433A
S315080010D094612F24134A166094626134D462516273
S315080010E011635061D060C52080001C580E4A22400A
S315080010F01A508022D2031A600C4B009A1A600C4BC5
S31508001100019A1A600B4B19700B4B197062B6F7BD32
S3150800111000100240000001400004014000E100E028
S315080011200004004000480140FFFF00FF2C0000209B
S315080011303400002030000020380000208022902350
S31508001140D200DB059A610022014B1A707047C0462F
S31508001150300000209023DB051B6906205B0502D5BD
S31508001160014B1878C0B270473000002000200522D5
S31508001170024B1870DA705870987070477400002027
S3150800118000200322024B1870DA7058709870704766
S3150800119040010020F8B5144CCF1D63786578A67811
S315080011A0DBB2FF08EDB2002E1AD194460A1C283687
S315080011B07343011CE0184260624682603A1C0C3098
S315080011C001F05FF9E2786B1C934292411340227852
S315080011D0934201D10122A270DBB26370002001E0C4
S315080011E008204042F8BDC04674000020F8B5144CEB
S315080011F0CF1D63786578A678DBB2FF08EDB2002EBE
S315080012001AD194460A1C28367343011CE01842601A
S31508001210624682603A1C0C3001F033F9E2786B1CA6
S315080012209342924113402278934201D10122A2703F
S31508001230DBB26370002001E008204042F8BDC046DA
S3150800124040010020074B187859781A1C884203D1A8
S315080012509B78DBB2181E04D0282310785843101840
S315080012600430704774000020074B187859781A1C08
S31508001270884203D19B78DBB2181E04D02823107845
S315080012805843101804307047400100200B4A137861
S315080012905078DBB2111C834202D19278002A09D019
S315080012A0CA7801339342924100201340DBB288701A
S315080012B00B7001E0092040427047C04674000020C8
S315080012C00B4A13785078DBB2111C834202D192780C
S315080012D0002A09D0CA78013393429241002013406C
S315080012E0DBB288700B7001E0092040427047C046A7
S315080012F04001002002B4714649084900095C4900CA
S315080013008E4402BC7047C046002243088B4274D301
S3150800131003098B425FD3030A8B4244D3030B8B42E8
S3150800132028D3030C8B420DD3FF22090212BA030CF1
S315080013308B4202D31212090265D0030B8B4219D3D2
S3150800134000E0090AC30B8B4201D3CB03C01A5241F2
S31508001350830B8B4201D38B03C01A5241430B8B423A
S3150800136001D34B03C01A5241030B8B4201D30B0323
S31508001370C01A5241C30A8B4201D3CB02C01A52414A
S31508001380830A8B4201D38B02C01A5241430A8B420D
S3150800139001D34B02C01A5241030A8B4201D30B02F6
S315080013A0C01A5241CDD2C3098B4201D3CB01C01A10
S315080013B0524183098B4201D38B01C01A524143091A
S315080013C08B4201D34B01C01A524103098B4201D308
S315080013D00B01C01A5241C3088B4201D3CB00C01A75
S315080013E0524183088B4201D38B00C01A52414308ED
S315080013F08B4201D34B00C01A5241411A00D2014612
S31508001400524110467047FFE701B5002000F00CF87E
S3150800141002BDC0460029F7D003B5FFF775FF0EBC1D
S315080014204243891A1847C0467047C046D0400B1C2D
S31508001430D1409C46203AD3401843524263469340D3
S315080014401843704738B500220C4B041C0D1C00F0DD
S31508001450C7FE002804D1201C291C00F025FE38BD33
S31508001460064B0022201C291C00F0A4FA00F01CFEE2
S3150800147080231B069C466044F1E7C0460000E04115
S31508001480F0B55F4656464D464446F0B4051C061C64
S31508001490080387B099464F00030BCC0F92469B462C
S315080014A07F0D019467D06C4B9F4236D080205B46F7
S315080014B040031843C0006B0F1843684B83469C468D
S315080014C000239846EE00674400934B4649461D03A1
S315080014D0C90F5B0052462D0B5B0D894600D16EE0A5
S315080014E05D498B4264D080205C4940038C460021CC
S315080014F00543ED00500F0543D20063444846FF18E4
S315080015007B1C9A46009B604002900B430F2B00D928
S31508001510ACE053489B00C3589F465B461D4300D02A
S3150800152082E00823009300239B4602330026984650
S31508001530CBE7029B01934346022B59D10124002590
S315080015400026019B1C40444B00212D030A0D120561
S315080015502D0B1543434A1B0515401D436D00E40733
S315080015606D082543301C291C07B03CBC904699469B
S31508001570A246AB46F0BD2B434ED05B46002B00D1AE
S3150800158085E1584600F036FE021C2823291C9B1AC2
S31508001590161C5846D940083EB0400B1CB5400343BC
S315080015A09B462E1C0023304F0093BF1A98468CE7A3
S315080015B0514629432ED10025002202219EE7514695
S315080015C0294323D0002D00D154E1281C00F012FE37
S315080015D0031C28215046C91A1A1CC8405146083A05
S315080015E0914095400A1C05431F480021C31A85E708
S315080015F0032B00D1C2E1012B00D06DE14446019BCB
S3150800160000251C40E4B2002300269DE700250022A1
S31508001610012173E7032171E70423009300239B4606
S3150800162001330026984650E70C230093093B984659
S315080016304BE7802500242D030026074B84E74B46FD
S31508001640AB46161C0193884675E7029BAB46161CEB
S31508001650019388466FE7C046FF07000001FCFFFFBD
S315080016609C240008FFFF0F800DFCFFFF330C360497
S31508001670360C9C46331C140C1204120C5343984621
S31508001680634653439946634663430193331C414675
S315080016906343090C4B445B18994505D980204002E1
S315080016A08146019949440191190C0391414609045F
S315080016B0090C1B045B1804932B0C9846331C2D0449
S315080016C0290C4B43604600934346654658435E43A0
S315080016D0009B4D431B0C9946AE194E448446B542B1
S315080016E003D980235B029946CC44350C2B1C0398FE
S315080016F0634484460593009B36041B041B0CF318AD
S315080017009C446046039058460504060C280C8446FB
S315080017105043351C81466046654344434846000CA1
S315080017208346724314195C44A24203D980225202AA
S3150800173093465D44220CAD184A461204120C240442
S315080017404046A41862464A4371434643604600969B
S31508001750464670438046100C84468844E04441451A
S3150800176005D9802149028C46009961440091019867
S3150800177003998446614499429B415B429946059880
S31508001780434684461204120C1B049B1863449C4669
S31508001790AB4683429B4140460A19CC44A242894142
S315080017A0E344CC45B6415C46000C80464942764245
S315080017B05B426418334398448C428941AB459B414C
S315080017C049425B4219430D1C009B4544EE187602BC
S315080017D0E50D2E43B346049B56021E43731E9E41D7
S315080017E05B46D20D324366021643DB010AD5012356
S315080017F0334076081E435B46DB071E435B465B08A1
S315080018009B465746634BFB18002B5ADD720709D0D7
S315080018100F223240042A05D0321DB242B641764222
S31508001820B344161C5A46D20106D55A465A4B1A4094
S3150800183080239346DB00FB18584A934234DD012483
S31508001840029B00251C400026554B7DE680205B4602
S315080018500003034208D0054206D105432D032D0B8C
S315080018604C46161C4E4B6FE65D4605432D032D0B65
S315080018704B4B69E6504600F0BDFC031C2033272B72
S3150800188000DCA6E65546083885400022ACE6281C4A
S3150800189000F0B0FC021C2032272A00DC75E6083866
S315080018A085400026AB467DE65A46F608520716439B
S315080018B05A4601245502029A5B052D0B5B0D14400E
S315080018C042E6384DED1B382D0ADD0124029B002522
S315080018D01C400026002337E6019B5746029391E7F2
S315080018E01F2D25DC304B321C9C466744BE405B46A8
S315080018F0BB40371CEA407E1EB74113433B431E1CC0
S315080019005B46EB401D1C730709D00F233340042B9D
S3150800191005D0331DB342B6417642AD191E1C2B02C3
S3150800192020D50124029B00251C40002601230BE636
S315080019305A461E4BDB1BDA40131C202D1CD01C4AB2
S3150800194094465A466744BA40171C3E43721E96414F
S315080019501E4307230025334007D00F2300253340B5
S31508001960042BD6D16B076D022D0B0124F6081E43F6
S31508001970029B1C400023E7E50027E6E780255B4637
S3150800198001242D031D43019B2D0323401C1C2D0BF5
S31508001990034BD9E5FF030000FFFFFFFEFE0700002B
S315080019A0FF07000002FCFFFF1E040000E2FBFFFF2A
S315080019B03E040000F0B54D4644465F465646F0B430
S315080019C00E1C111C3203520A470F1743C5001A038F
S315080019D05800DB0F9946520A4B0F83B01A43CB00C7
S315080019E00193CF4B7400F60F640DB046400D984234
S315080019F000D1E8E00123494659400B1C9E4200D11C
S31508001A00B1E0261A002E00DC1CE1002842D1131C86
S31508001A1001990B4300D0E6E06B0700D18EE00F2357
S31508001A202B40042B00D189E02A1DAA42AD41802310
S31508001A30012641466D427F191B043B400E40151C8A
S31508001A40002B00D183E0B64B01349C4200D116E14D
S31508001A503A1CB44BED081A40500764055202054378
S31508001A60120B640D002112030B0D1B056405120BE6
S31508001A701A436308AC4CF60714401C436400640818
S31508001A803443281C211C03B03CBC90469946A24608
S31508001A90AB46F0BDA24B9C42BED080231B041A4322
S31508001AA0382E00DD03E11F2E00DD3FE12020831BD9
S31508001AB09946131C49468B409C46019B6046F34059
S31508001AC003430198F2408840011C481E81410B439C
S31508001AD0EB1A9D4280411D1CBA1A4042171A3B0256
S31508001AE000D4A8E07A02560A002E00D1CAE0301CBB
S31508001AF000F080FB031C083B1F2B00DDCBE02822EF
S31508001B00291C121AD1409E400A1C9D4032439C4211
S31508001B1000DDC8E01C1B671C1F2F00DDEDE01F233E
S31508001B20291C1C1B131CA540A340F9406C1EA5418B
S31508001B30FA4019430D43171C00246DE7802301263C
S31508001B4042461B043B401640002B00D07BE7744BF3
S31508001B50ED0878070543FA089C423BD01203640552
S31508001B60120B640D7EE7231A9A46002B00DCA5E0CB
S31508001B70002844D06A48844200D14DE780200004FA
S31508001B8002435346382B00DC1CE1019B1A43511EC5
S31508001B908A41D1B200224919A94280410D1CD219A5
S31508001BA0404217183B0246D55D4B01349C4200D192
S31508001BB069E101205B4A6B083A4028401843D5077B
S31508001BC00543570828E7131C01990B4300D111E771
S31508001BD04B4613E72B1C134351D080231B031A4390
S31508001BE01203120B3EE7013E002E00D080E0691A70
S31508001BF08D429B41BA1A5B42D71A0D1C6FE7101C1F
S31508001C00019B184300D107E701235B429C46E24447
S31508001C105346002B00D002E1019BD2195919A9425B
S31508001C209B415B42D7180D1CBCE76346034300D1B2
S31508001C3028E1071C65466B0700D0F0E601264346F7
S31508001C401E4084E7002E00D081E0601C4005400D50
S31508001C50012800DC07E10199681A84466545B64102
S31508001C60B81A7642861B300200D4A1E08C464D1B7A
S31508001C70AC458941D21B4942561A984634E7002298
S31508001C800025EFE6281C00F0B5FA2030031C083BB7
S31508001C901F2B00DC33E7021C283A95402A1C002536
S31508001CA09C4200DC36E71F4FE41A1740B4E6019B56
S31508001CB01A43511E8A41D3B2002209E7002B00D0ED
S31508001CC001E1601C43055B0D012B00DCB0E0144B01
S31508001CD0984200D11EE1019BD2195919A9429B418C
S31508001CE05B42D2184908D5070D435708041C93E6EA
S31508001CF00B4B9C4200D0D3E68EE6211C131C1F39E1
S31508001D00CB40191C202F00D18EE03F231C1BA2407C
S31508001D1015436A1E954100270D4300248BE7C046EC
S31508001D20FF070000FFFF7FFFFFFF0F80331C101C1B
S31508001D30203BD840202E79D040239B1B9A40131C69
S31508001D40019A1343591E8B4100220343C0E6002C17
S31508001D5053D0C74CA04200D1B0E0802471428946D6
S31508001D60240427434946382900DDCDE01F2900DD34
S31508001D7059E120243E1C611A8E408A46B0464946DF
S31508001D802E1CCE405146B4468D40644646464946CA
S31508001D9026436C1EA541CF4035430199D71B8C4677
S31508001DA04D1BAC4592415242BF1A041C984696E612
S31508001DB063466546334300D096E60026002700248E
S31508001DC00025C4E61F2B61DC2020C31A9B46131C82
S31508001DD059468B4051469946019BCB409C464B46FB
S31508001DE0604603439C465B46019999406346481EF4
S31508001DF0814119435346DA40CDE63C1C2C435DD05D
S31508001E00F1438946002955D10199D21B8C464D1BB1
S31508001E10AC4589414942571A041C98465FE69448DE
S31508001E20844200D0ADE6F7E5002271E7002387E794
S31508001E303B1C2B43002C00D0DAE0002B00D113E129
S31508001E40131C01990B4300D1E6E54919A9429B41A8
S31508001E50D2195B42D7183B0200D421E1854B0D1CF1
S31508001E601F40041CD8E5381C2843002C40D1002804
S31508001E7000D083E0101C0199084303D0171C0D1CE1
S31508001E809846C9E500260027002560E65046131C3B
S31508001E902038C340181C5346202B00D1C1E04023EC
S31508001EA051465B1A9A40019911434A1E91410022F4
S31508001EB0014370E66E4CA04200D053E7171C019D03
S31508001EC0041C9846A8E5002C28D13C1C2C4300D1BC
S31508001ED08AE0DB439A46002B00D082E0019BD219A8
S31508001EE09C4665449D42894149425718041C59E657
S31508001EF000285BD1101C0199084300D1A4E0171CE7
S31508001F000D1C98465A4C87E53D436F1EBD41002778
S31508001F10EDB242E7041C0027002518E6544CA042FF
S31508001F2062D0534680245B429A462404274353468C
S31508001F30382B00DD8EE01F2B00DD9DE02024E31A00
S31508001F409B463B1C59468B40514699462B1CCB4019
S31508001F509C464B46644623439C465B469D406346E7
S31508001F606C1EA541CF401D43019BBF189C46654486
S31508001F709D4292415242BF18041C13E6101C019957
S31508001F80084300D148E5681A844685428041BE1A4E
S31508001F904042301A060200D447E68C464D1BAC4533
S31508001FA08941D21B4942571A984635E5101C0199B2
S31508001FB0084334D080247807ED08FF082403284313
S31508001FC0274208D0D608264205D1C90852070A432F
S31508001FD0101C371C9846FF00420F1743C500244CB7
S31508001FE01AE5234CA042A2D1171C019D041C13E537
S31508001FF0002B35D0131C01990B4310D08024780789
S31508002000ED08FF08240328432742E4D0D3082342D7
S31508002010E1D1C90852070A43101C1F1CDBE7144C00
S31508002020FAE400223FE74C463E1C203CE64049467F
S31508002030341C202932D04026761AB7403D436F1EFD
S31508002040BD4100272543A8E680270026FF03084C44
S3150800205000257CE53D436F1EBD410027EDB283E7B1
S31508002060171C019D024CD7E4171C019DD4E4C046F9
S31508002070FF070000FFFF7FFF54463B1C203CE34060
S315080020801C1C5346202B0DD0402351465B1A9F40FB
S315080020903D436F1EBD410027254365E70027CDE771
S315080020A00D1CC8E50027F3E70B0330B5134C1A0BD4
S315080020B04B00051C5B0DC90F0020A34210DD10481C
S315080020C083420EDC80200F4C40030243E41A1F2C87
S315080020D00ADD0D48C31ADA40131C48424340581813
S315080020E030BD0A4BC818FBE7281CE040084CA4463C
S315080020F063449A40131C0343EFE7C046FE030000FF
S315080021001D0400003304000013040000FFFFFF7FD6
S31508002110EDFBFFFF10B5041E10D000F06BF8144A53
S31508002120121A0A281ADC0B23211C1B1AD94015304F
S315080021300B03520584401B0B520D01E000220023BD
S3150800214000211B03201C1C0B0B0D1B052343094CEC
S315080021501205234013435B00590810BD031C0B3BB3
S315080021609C40520523031B0B520D0024E8E7C0468A
S315080021701E040000FFFF0F808446101C62468C4632
S31508002180191C634600E0C0461FB500F005F9002893
S3150800219001D40021C8421FBD10B500F049F84042DD
S315080021A0013010BD10B500F0F7F8002801DB00205B
S315080021B010BD012010BDC04610B500F0EDF800288E
S315080021C001DD002010BD012010BDC04610B500F08D
S315080021D073F8002801DC002010BD012010BDC046A0
S315080021E010B500F069F8002801DA002010BD0120BA
S315080021F010BDC0461C2101231B04984201D3000CC4
S3150800220010391B0A984201D3000A08391B0998425B
S3150800221001D30009043902A2105C40187047C04671
S315080022200403020201010101000000000000000091
S31508002230F0B55F464D4644465646F0B41F035C006B
S31508002240DB0F99461B4B0E034D00C90F8446360B10
S315080022506D0D8B4690463F0B640D9D420CD0154B79
S315080022609C4210D00123A54214D0181C3CBC9046B1
S315080022709946A246AB46F0BD311C01230143F4D171
S315080022800C4B9C42EED13A430123002AEDD101239F
S31508002290A542EAD1BE42E8D1C445E6D1CB4506D02F
S315080022A0002DE2D13043031C581E8341DDE700238D
S315080022B0DBE7C046FF070000F0B5574645464E46E1
S315080022C0E0B40F034E00C90F8A4632491D035C006D
S315080022D084463F0B760D90462D0B640DDB0F8E4220
S315080022E00FD08C4239D0002E10D13843414241419B
S315080022F08946002C27D12A4325D1002000290ED152
S3150800230008E0391C01432ED1B44226D0002C0BD04C
S315080023109A450DD05346594201231943081C1CBC43
S3150800232090469946A246F0BD2A43F3D09A45F1D184
S31508002330A642EFDC1ADA504641424841012341429F
S315080023401943081CEBE74A46002AE1D0584258418F
S31508002350012241421143081CE1E7291C114302D11D
S31508002360002EC2D0D4E702204042D8E7AF42D1D8E7
S3150800237009D00020AF42D2D25046414248410123FB
S3150800238040421843CBE7C445C4D80020C445F3D31C
S31508002390C5E7C046FF070000F0B55F464D46444610
S315080023A056468046F0B4061C0803000B84462C48A3
S315080023B04C001F035D00C90F640D8B4691463F0B09
S315080023C06D0DDB0F844212D0854225D0002C14D126
S315080023D061460E4370424641002D35D0002E21D06D
S315080023E058425841012143420B43181C0EE06146EE
S315080023F0022031430AD1A5420ED0002D12D13A430C
S3150800240010D15B46594201231943081C3CBC90462F
S315080024109946A246AB46F0BD391C02201143F5D1B8
S31508002420002CD5D09B45ECD1AC42EADC05DBBC459B
S31508002430E7D80FD00020BC45E8D25846414248416B
S31508002440414201200843E1E73A43C7D10020002E64
S31508002450DCD1D6E7C845D4D80020C845EDD3D5E7A2
S31508002460FF07000030B50024944208D0035D651CC0
S315080024700C5DA34201D0181B02E02C1CF4E70020D7
S3150800248030BD002310B5934203D0CC5CC45401334D
S31508002490F9E710BD00FEFEFFFDFC00006C16000803
S315080024A04A1600084A1600083E16000832150008A3
S315080024B032150008321600083E16000832150008C4
S315080024C032160008321500083E16000836150008B0
S311080024D036150008361500084C180008E0
S30D080024DCE8030000FFFF000001
S705080000C131
