S00E00004465765F4F572E73726563F2
S3150800000000100020C10000080D0100085108000872
S3150800001000000000000000000000000000000000D2
S315080000200000000000000000000000000D010008AC
S3150800003000000000000000000D010008E9060008A5
S315080000400D0100080D0100080D0100080D0100084A
S315080000500D0100080D0100080D010008F908000847
S315080000600D0100080D0100080D0100080D0100082A
S315080000700D0100080D0100080D0100080D0100081A
S31508000080550C00080D0100080D0100080D010008B7
S315080000900D0100080D010008350A00080D010008C9
S315080000A00D0100080D0100080D0100080D010008EA
S315080000B00D0100080D0100080D0100080D010008DA
S315080000C00C4885460C480D490D4A002302E0D458D1
S315080000D0C4500433C4188C42F9D30A4A0A4C002384
S315080000E001E013600432A242FBD300F007FB00F0E4
S315080000F04DFAFEE70010002000000020080000204E
S31508000100DC100008080000209C050020FEE700001F
S31508000110F8B50125134C071C2368391CAB4323602B
S315080001206268114B1148134063602268104B1340F4
S315080001300C221343236000F023FF391C061C0B48CE
S3150800014000F0A4FFEF400023B9425B41F6183007E0
S31508000150430F084830401843E06023681D43256074
S31508000160F8BDC04600380140FFCFFFFF006CDC0237
S31508000170F3E9FFFFF0FF000038B501258022154C92
S315080001809202A369A0212B43A3616369E12013436B
S3150800019080226361A369D2011343A3619023DB051F
S315080001A01A6840020A4388211A601A6A49010A43F2
S315080001B01A62FFF7ADFF8021074B89001A680A43C8
S315080001C080211A601A68C9000A431A6063692B43BA
S315080001D0636138BD0010024000000140C02296202D
S315080001E010B50D4C8001A3689343A360FFF790FFF9
S315080001F040232362B0332385E3699B06FCD5E120BF
S31508000200054B40029C8CFFF783FFA4B2E0B2F0389E
S31508000210441EA041C0B210BD003801400268184B08
S31508000220134003600023036043608360C360154B7B
S31508000230984203D1144A0F2153681DE0134B984284
S3150800024003D1114AF021536816E0114B984204D1A4
S31508000250F0210D4A090153680EE00E4B984204D16D
S31508000260F021094A0902536806E00B4B984205D16A
S31508000270F021054A090353680B4353607047C0468B
S31508000280FEFF000008000240000002401C00024079
S31508000290300002404400024058000240034B1B68ED
S315080002A01840431E9841C0B27047C046000002403D
S315080002B0F8B50F1C002301221F4E024000D0FF2272
S315080002C0F25401334008082BF5D11C4C1C4D201C58
S315080002D0FFF7A4FF281CFFF7A1FF80212268194B0E
S315080002E01A400A432260184A6760A260174A4031DA
S315080002F0E2602A681340902213432B60144B154A78
S315080003006F60AB60EE6093680B4393602A68BF39F1
S315080003100A432A6023680B4323600F4C802080021F
S31508000320FFF7BCFF002806D1013C1920A4B200F053
S3150800033081FA002CF2D1F8BD1A02002058000240BA
S31508000340440002400F80FFFF24380140C00100200E
S315080003502838014000380140214E0000F8B5061C37
S3150800036000231F4FB34204D2FF22FA540133DBB2F3
S31508000370F7E71C4C1C4D201CFFF750FF281CFFF705
S315080003804DFF80212268194B1A400A432260184AF9
S315080003906660A260174A4031E2602A6813409022DC
S315080003A013432B60144B154A6E60AB60EF6093687D
S315080003B00B4393602A68BF390A432A6023680B43B4
S315080003C023600F4C80208002FFF768FF002806D1C3
S315080003D0013C1920A4B200F02DFA002CF2D1F8BD88
S315080003E01A02002058000240440002400F80FFFF16
S315080003F024380140C0010020283801400038014057
S31508000400214E000008B50821FFF752FF08BD00007D
S31508000410C00070B5C4B2A0B2FFF7A0FF0020E40880
S31508000420C3B2A34212D20021094BC500ED180B1C1A
S315080004306A5CFF3A564272418A4001319B18DBB228
S315080004400829F5D1034A13540130E9E770BDC046BF
S31508000450C00100201002002070B50023041C221AD7
S31508000460D2B28A4211D2082225781E1C6E405B0839
S315080004706D08F60703D5742676427340DBB2013A57
S31508000480D2B2002AF1D10134E9E7181C70BD000088
S3150800049038B500250024094BEB1801351C70082DCA
S315080004A0F8D1FFF79BFEA04206D03320FFF7AAFF3C
S315080004B0281CFFF7ADFF0134201C38BD10020020B0
S315080004C070B5051CFFF7E4FF002810D00B4C072178
S315080004D0201CE679FFF7C0FF864208D10023E21800
S315080004E0D179EA1A013B11711A1C0832F7D1C820D2
S315080004F0800000F09FF9002070BDC0461002002061
S3150800050008B500F083FC08BD10B50378041C132B4E
S3150800051011D1411C0222194800F0D3FD2379E27853
S315080005201B021343FA2292005343154A1360012211
S31508000530144B1A700AE00E2B0AD1837842781B02F4
S315080005401343FA22920053430D4A1360002013E026
S31508000550142B0FD1042400F097F9013C0A4800F047
S3150800056069F9A4B200F096F9074800F063F9002C7F
S31508000570F1D1EBE70B20404210BDC0460400002035
S315080005800000002008000020A0860100F0B54F4BAF
S315080005904F4C8BB0636000F083F9206000F022FCBA
S315080005A000F02AFC4B48002100F086FB00F002FC14
S315080005B0FFF7E2FD00F00AFC062802D100F064F914
S315080005C0F8E700F067F900F079FC051E20D003680B
S315080005D0482B09D90830211C082200F063FD0028A1
S315080005E004D1281C10300FE0102B0AD9281C3A49D0
S315080005F00830022200F056FD002807D1281C0A30D0
S3150800060002E0072B02D80830FFF77EFF00F07AFCDD
S31508000610324D2B78002B15D1314E3368002B11D172
S3150800062002A8031C221C82CA82C30C23037211333C
S31508000630437258210D3B0122837200F013FC294BAB
S315080006401B6833602E78012E1BD1254D2B68002B95
S3150800065017D12149022202A800F033FD0B2302AA72
S315080006609370101C1233D370FFF72AFF502302AA87
S315080006701373101C6821321C00F0F4FB194B1B681D
S315080006802B6000F02DFC002894D0031C0A250833A3
S31508000690009303684768019300F0F6F800980199FB
S315080006A03A1C00F02DFA061C00F0F4F8002E04D0CF
S315080006B0013D00F0E9F8002DEED100F0EBF8002E30
S315080006C000D077E700F038FC74E7C0461515151515
S315080006D090050020010500080400002008000020FD
S315080006E09805002000000020034B1A68002A02D053
S315080006F01A68013A1A6070479805002001213F4B95
S3150800070010B51A683E480A431A6059683D4A0A40B5
S315080007105A6019683C4A0A401A6019683B4A0A40F6
S315080007201A6059683A4A0A400F215A60DA6A8A43B7
S31508000730DA62196B374A0A401A63596B364A0A4015
S315080007405A63002235499A60013ACA67C0214900AE
S315080007504250334A7039FF39116080215A6849027C
S315080007605A601A680A431A601A6824499203FBD524
S3150800077048682C4A024088204003024380204A6089
S315080007800A68400402430A601A681C499201FBD5AC
S3150800079003204A688243013802434A600C2259689A
S315080007A0164811400829F9D1802243699202134359
S315080007B08224902243610023D205E4045361146025
S315080007C08024E4005460802464039360D460802409
S315080007D0136253624269E40222434261124A536138
S315080007E01160083153609360D36011620F4A104953
S315080007F0516093600333136010BDC0460010024079
S3150800080000E100E00CB8FF80FFFFF6FEFFFFFBFFEC
S31508000810FF7FC0FFACFEFFFFFEFFFEFF04E100E026
S3150800082000200240FFFFC0FF0004004810E000E07F
S315080008306F170000013809D30423C046C046C046D6
S31508000840C046C046013B002BF7D1F3E770470000CE
S3150800085038B590248025E405AD01A5610348FFF766
S31508000860E9FFA5620148FFF7E5FFF2E7E093040018
S31508000870802290239201DB059A617047802290239B
S315080008809201DB059A627047802290239201DB056C
S315080008909A617047802290239201DB059A6270471D
S315080008A0042210B50F4B10481968CBB258400F4BAD
S315080008B0013A5843090A002AF7D10D4A1168042259
S315080008C0CCB26040013A5843090A002AF8D1094ACD
S315080008D011680422CCB26040013A5843090A002A3A
S315080008E0F8D110BDACF7FF1FC59D1C81930100010F
S315080008F0B0F7FF1FC0F7FF1F80234349434A9B00F9
S3150800090070B5486A902653610022F6054A62326934
S315080009103F4C520505D4FB3BFF3B237003330B606A
S3150800092071E001250A682A4052D0326981B2134023
S3150800093004D017228A429B415B4202E046228A4241
S315080009405B412278DB01D2B2012A1DD0022A5AD194
S31508000950304A1068FF280CD82F49C208895C07223C
S31508000960024091400A1C80210A409A422BD0042357
S3150800097004E02A4A12789A4225D0052300222370D9
S31508000980274B1A605A621EE0224A26491068FF2839
S3150800099012D80A785A40D2B254B25200002C01DA60
S315080009A0632462400A700722024013411E4CC108A4
S315080009B0625C1343635406E0FF220A70F0211B4A67
S315080009C011701B4A1370134A1368013313601AE037
S315080009D0092008603169194213D001210D4B49429B
S315080009E01960114B1A605A609A60DA601A615A6186
S315080009F09A61DA61FFF73CFF2378002B03D1257053
S31508000A0001E00323237070BD004801400004014043
S31508000A103000002044000020480000206800002024
S31508000A2000040040700000200C000020690000202F
S31508000A30400000200022294B70B51A619022D20589
S31508000A401169274C490503D406222270033205E0B2
S31508000A501269920504D50322227006321A603CE018
S31508000A6020780138042834D800F080FA032E333071
S31508000A7030001C4B1968082901D81B4B1CE00A1CBE
S31508000A80093AF62A17D8194A1278002A13D1164AAB
S31508000A901568002D1DD008391960072314480B4026
S31508000AA005D0FF22DA40CE08835D93438355114B68
S31508000AB01A78A8470DE0104B1B68002B09D00D4A81
S31508000AC00B481278984704E0002200E022780B4B86
S31508000AD01A7000232370FFF7D1FE70BD004801404D
S31508000AE030000020440000202C0000207000002068
S31508000AF00C000020400000203400002038000020B0
S31508000B00F0B54B1E85B003900292F72B00D98CE006
S31508000B1001220A4000D088E0FF23141C01918C4270
S31508000B201AD00398E710C05D072684468020051C66
S31508000B30264035412E1C65462E4200D043401840BB
S31508000B405B00002801D063204340600702D1654658
S31508000B503848C5550134E2E7082900D9082254184F
S31508000B60019AA24214D20721019A324FD610114097
S31508000B708022101CC84084461A406546CA40B85DA3
S31508000B805B00A8431043019AB85501320192E7E782
S31508000B90FA27BF00284D2E78F6B2002E0CD00A2070
S31508000BA0013FFFF747FE002FF4D1052E01D97F201C
S31508000BB03CE0224B98573AE0029A214B002A03D090
S31508000BC0802212211A7003E06A465321127A1A709B
S31508000BD000221C4B1A601C4B1C601C4BFA241E1C62
S31508000BE05A621A6106321A640332D9621A60073ADF
S31508000BF02A70E4002B78022B10D10520013CFFF760
S31508000C0019FE002CF6D190233460DB0574621B694B
S31508000C105B0500D406342C70062007E00C4B1B78C5
S31508000C20052BC4D8054AD05601E00520404205B038
S31508000C30F0BDC0464800002030000020D41000084F
S31508000C40680000203C0000206C00002000040040E2
S31508000C503800002000201449144AF0B50B681061CA
S31508000C601348006883421ED2072480201C40E040B7
S31508000C70041C104DD8082E5C1920264200D11338C2
S31508000C80072680275C1C26401064E4082D5DF74083
S31508000C90041C4D343D4201D00C30041C092002339B
S31508000CA0D46210600B60F0BD3C00002000040040D8
S31508000CB06C00002048000020F7B50090019172B63C
S31508000CC001201E24304A31499369034393610B6915
S31508000CD0A3430B612E4BE3341968FF342143196093
S31508000CE0996821439960D9682143D9600534294B0D
S31508000CF0FF3419590902090A195180211960022479
S31508000D00D16908262143D1612F2500210627224CC7
S31508000D1026606162A56227644D37E762E827FF010E
S31508000D20E76180277F012762C4276061BF00E06012
S31508000D30DC59251CFF24A543DD51802464021C6070
S31508000D4080279469FF023C4394612F24134A166056
S31508000D5094626134D462516211635061D060C520D7
S31508000D6080001C580E4A22401A508022D2031A606C
S31508000D700C4B009A1A600C4B019A1A600B4B1970AF
S31508000D800B4B197062B6F7BD001002400000014017
S31508000D900004014000E100E0000400400048014072
S31508000DA0FFFF00FF2C000020340000203000002048
S31508000DB03800002080229023D200DB059A610022A9
S31508000DC0014B1A707047C046300000209023DB059F
S31508000DD01B6906205B0502D5014B1878C0B270471F
S31508000DE03000002000200522024B1870DA70587077
S31508000DF0987070477400002000200322024B187078
S31508000E00DA7058709870704740010020F8B5144C95
S31508000E10CF1D63786578A678DBB2FF08EDB2002EA1
S31508000E201AD194460A1C28367343011CE0184260FE
S31508000E30624682603A1C0C3000F043F9E2786B1C7B
S31508000E409342924113402278934201D10122A27023
S31508000E50DBB26370002001E008204042F8BDC046BE
S31508000E6074000020F8B5144CCF1D63786578A67811
S31508000E70DBB2FF08EDB2002E1AD194460A1C2836BA
S31508000E807343011CE0184260624682603A1C0C30CB
S31508000E9000F017F9E2786B1C9342924113402278CE
S31508000EA0934201D10122A270DBB26370002001E0F7
S31508000EB008204042F8BDC04640010020074B18787C
S31508000EC059781A1C884203D19B78DBB2181E04D0C5
S31508000ED028231078584310180430704774000020EF
S31508000EE0074B187859781A1C884203D19B78DBB2CD
S31508000EF0181E04D028231078584310180430704759
S31508000F00400100200B4A13785078DBB2111C83424B
S31508000F1002D19278002A09D0CA78013393429241C5
S31508000F2000201340DBB288700B7001E009204042B4
S31508000F307047C046740000200B4A13785078DBB21D
S31508000F40111C834202D19278002A09D0CA7801334B
S31508000F509342924100201340DBB288700B7001E087
S31508000F60092040427047C0464001002002B471463D
S31508000F7049084900095C49008E4402BC7047C046CE
S31508000F80002243088B4274D303098B425FD3030ABA
S31508000F908B4244D3030B8B4228D3030C8B420DD3CD
S31508000FA0FF22090212BA030C8B4202D3121209025B
S31508000FB065D0030B8B4219D300E0090AC30B8B4299
S31508000FC001D3CB03C01A5241830B8B4201D38B0347
S31508000FD0C01A5241430B8B4201D34B03C01A5241EC
S31508000FE0030B8B4201D30B03C01A5241C30A8B422F
S31508000FF001D3CB02C01A5241830A8B4201D38B021A
S31508001000C01A5241430A8B4201D34B02C01A5241BD
S31508001010030A8B4201D30B02C01A5241CDD2C3092F
S315080010208B4201D3CB01C01A524183098B4201D3AB
S315080010308B01C01A524143098B4201D34B01C01A96
S31508001040524103098B4201D30B01C01A5241C3080E
S315080010508B4201D3CB00C01A524183088B4201D37D
S315080010608B00C01A524143088B4201D34B00C01A69
S315080010705241411A00D20146524110467047FFE7D5
S3150800108001B5002000F00CF802BDC0460029F7D0D3
S3150800109003B5FFF775FF0EBC4243891A1847C046C9
S315080010A07047C04630B50024944208D0035D651CDD
S315080010B00C5DA34201D0181B02E02C1CF4E70020AB
S315080010C030BD002310B5934203D0CC5CC454013321
S311080010D0F9E710BD00FEFEFFFDFC000065
S30D080010DCE8030000FFFF000015
S705080000C131
