S01400004465765F72666964313335362E737265631E
S3150800000000100020C10000080D0100081D0E0008A0
S3150800001000000000000000000000000000000000D2
S315080000200000000000000000000000000D010008AC
S3150800003000000000000000000D010008B50C0008D3
S315080000400D0100080D0100080D0100080D0100084A
S315080000500D0100080D0100080D010008C50E000875
S315080000600D0100080D0100080D0100080D0100082A
S315080000700D0100080D0100080D0100080D0100081A
S31508000080211200080D0100080D0100080D010008E5
S315080000900D0100080D010008011000080D010008F7
S315080000A00D010008A50500080D0100080D0100084E
S315080000B00D0100080D0100080D0100080D010008DA
S315080000C00C4885460C480D490D4A002302E0D458D1
S315080000D0C4500433C4188C42F9D30A4A0A4C002384
S315080000E001E013600432A242FBD300F0EDFD00F0FC
S315080000F031FDFEE700100020000000200800002067
S31508000100841500080800002054050020FEE708B5FD
S31508000110C8239B00584300F073FE08BD034B9B6839
S315080001209B07FBD5024B18707047C046003001404C
S315080001300C30014038B5041C4518AC4204D0207870
S31508000140FFF7ECFF0134F8E738BD000080210C4AC0
S31508000150890253690B43536190235021DB051A68C2
S315080001600A431A609A68A0310A439A609A69E8397C
S315080001700A439A619A6904390A439A617047C046E4
S3150800018000100240F0B50E1C171C1C1C1F2593B04E
S3150800019001909023DB051A69920707D5013DC8200F
S315080001A0ADB200F02DFE002DF3D132E008219620E5
S315080001B09A6AC0000A439A6200F022FEB1B2019818
S315080001C0FFF7B8FFB00000F01BFE1F259023DB05E4
S315080001D01A69920707D4013DC820ADB200F010FE97
S315080001E0002DF3D115E00821C8209A6980000A433A
S315080001F09A6100F005FE1F269022D20513699B0717
S31508000200DD0F08D0013EC820B6B200F0F9FD002E79
S31508000210F2D1002050E00120002F4DD0002C4BD009
S315080002200821936A4F300B43936200F0E9FD234B94
S315080002301D802B1CA34205D2FF2202A9CA540133F2
S31508000240DBB2F7E7A1B202A8FFF774FFA00000F03F
S31508000250D7FD0023A34206D2194A59008A5AFA54EE
S315080002600133DBB2F6E71F249023DB051A699207F0
S3150800027007D4013CC820A4B200F0C2FD002CF3D17B
S31508000280C7E70821C8209A6980000A439A6100F0E6
S31508000290B7FD1F249023DB051A69920707D5013C91
S315080002A0C820A4B200F0ACFD002CF3D1B1E70821B8
S315080002B001209A690A439A6113B0F0BD42040020EE
S315080002C044040020F0B50E1C0D1C0C1C002385B040
S315080002D002AA360A2D0C240E0191137050709170E3
S315080002E0D67015715471101C06211A1CFFF74AFFA7
S315080002F0012005B0F0BD0A1CF0B585B002AB0E1C96
S315080003000D1C120E01245A710022360A2D0C019179
S315080003101C7058709970DE701D71181C0621131C0C
S31508000320FFF730FF201C05B0F0BD7FB50A1C02ABF5
S315080003300D1C0C1C120E0E1C01915A710221002272
S315080003402D0A240C197058709E70DD701C71181CCB
S315080003500431131CFFF716FF012004B070BD00001E
S3150800036008B504230A1C044948700B70081C0221AE
S31508000370FFF708FF012008BDF803002013B501ACFC
S31508000380211C1320FFF7ECFF60782378000218433E
S31508000390C005C00D16BD13B501AC1D20211CFFF705
S315080003A0DFFF0023984218D00722E0781040013872
S315080003B0062812D801F0C0F80406080A0C0E100028
S315080003C001230AE0022308E0032306E0042304E0ED
S315080003D0052302E0062300E00723181C16BD13B503
S315080003E001AC211C0220FFF7BBFF6078A37800024E
S315080003F01B04184323781843E3781B06184316BDD5
S3150800040008B5011C0320FFF75DFF08BD822371B5FF
S315080004105B00FFB0994201D9002020E0092300249F
S3150800042001AE337072708C4204D0025D33199A7033
S315080004300134F8E7082100204942FFF776FF032137
S315080004400020FFF758FFFFF7A6FF051E012DE3D191
S315080004500022A11C301C131CFFF794FE281C7FB039
S3150800046072BD00000022FE2310B55B00141C9842E2
S3150800047009D80A21031C054C054801704270083941
S31508000480221CFFF77FFE201C10BDC0460800002076
S31508000490F8030020FE2213B5031C520000209342E5
S315080004A008D80A240A1C01A948700C70081C0221E5
S315080004B0FFF768FE16BD07B5112201AB1A700022B8
S315080004C058709970181C0321131CFFF75BFE012056
S315080004D00EBD162307B501A80370002302211A1CB6
S315080004E04370FFF74FFE01200EBD38B59024042552
S315080004F0FA20E405A36A40012B43A36200F080FCBE
S31508000500FA20A36940012B43A36100F079FC0B2470
S31508000510FFF765FF430706D4013CC820A4B200F0E4
S315080005206FFC002CF4D101204042FFF769FF38BD6B
S315080005308021134B89025A69A8200A435A619022DE
S31508000540D2051168000201431160116A1162802107
S315080005509A6949010A439A611C224021094B1A608B
S31508000560094A5A601A680A43C6211A60074B890065
S315080005705858074A02405A50802292041A60704717
S3150800058000100240003001404C17000000E100E076
S31508000590FF00FFFF08B5FFF7CBFFFFF7D7FDFFF713
S315080005A0A4FF08BD084B10B59A68D2070BD5074AB1
S315080005B0DC6813880649580001339BB244523F2B26
S315080005C000D90023138010BD0030014042040020EA
S315080005D04404002038B5124D041C281C00F02AFAE1
S315080005E0002814D1FFF781FF00F01EF8281C00F040
S315080005F063F800280BD1FFF778FF00F0AFF8231D4A
S315080006001E3400221A700133A342FAD107E00023F0
S31508000610044AD15CE218013311711A2BF8D138BD9E
S3150800062002040020C404002008B509208921FFF728
S3150800063042FF002801D0FFF74CFF08BD73B5051C23
S3150800064089210920FFF737FF002801D1002031E072
S31508000650412100204942FFF768FE0028F6D0002411
S315080006606B4606216A4619705C70FF239370D37037
S31508000670FE3B137154716846221CFFF7C7FEA04261
S31508000680E4D03220FFF743FD1420FFF7EBFE061CEB
S31508000690FFF774FE221CC0B2A642D7D0824203DA04
S315080006A0B35CAB540132F9E76B78013B5A425341CC
S315080006B05B42184076BD000070B50023051C86B065
S315080006C0002601AC1E550133142BF9D1201CFFF767
S315080006D0B5FFB04235D0331CE21891781A4AE9546E
S315080006E09E1801333171082BF6D10023E518AD7A2F
S315080006F0D11801338D74082BF8D1A37CE17C1B0239
S315080007000B4303219170114913828B4204D10C21AA
S31508000710D170D43111800AE0FE2109028B4201D141
S315080007200F2103E00A498B4201D10D21D1700949F5
S315080007305B1809499BB28B4201D80E23D370082354
S31508000740D37206B070BDC046C4040020B488000049
S31508000750E1FE000000C0FFFFFF0F000008B5002003
S315080007608021FFF7A8FE002801D0FFF7B2FE08BDDA
S31508000770F0B50124384BD9729C70187315785478E3
S315080007802D0225430024DD81E6B28E4205D21619D4
S31508000790F7781E1937710134F6E7022630425AD126
S315080007A008241022204216D0104207D08022520177
S315080007B01A80042204294AD0052248E0C20707D530
S315080007C09A2252001A800322042940D1DE7042E0A0
S315080007D08022D200ECE70240111E09D00622C1078A
S315080007E002D58021490101E08021090119802EE006
S315080007F0202210402DD08422D20195421AD00AD840
S3150800080080229200954210D08022D20095421BD1B8
S31508000810802212010BE08822D20195420FD00F4A9E
S31508000820954211D119800A2211E0802252011A80BC
S31508000830DC7010E0802252011A80092207E080222B
S3150800084012011A80072202E000221A800B32DA709F
S3150800085001E01880D870F0BDC404002003440000ED
S3150800086073B5041C80210020FFF725FE002821D03F
S31508000870412100204942FFF758FD00281AD00221DD
S3150800088012204942FFF751FD002813D002211920F2
S315080008904942FFF74AFD00280CD02623002C00D039
S315080008A02C336A466846137001210722FFF7AEFD0E
S315080008B0002801D10020ACE0564C0220211CFFF78D
S315080008C0E9FD0028F6D06B4693256A461D7020235D
S315080008D06846537002210022FFF798FD0028E9D0E8
S315080008E06B460520991CFFF7D5FD0028E2D012209B
S315080008F00121FFF700FD0028DCD019200121FFF7B0
S31508000900FAFC0028D6D06B466A461D7070236846E6
S31508000910537007210022FFF779FD0028CAD03E4E02
S315080009200120311CFFF7B6FD0028C3D06B46A0781E
S315080009308F3D9B7828420AD1E3706B46DB7823719A
S315080009406B461B7963716B465B79A3715CE0882BF8
S31508000950B0D16B46DB780221E3706B461B79122017
S3150800096023716B465B7949426371FFF7DEFC002809
S31508000970A0D0022119204942FFF7D7FC002899D0B8
S315080009806B4695256A461D702023684653700221DA
S315080009900022FFF73BFD00288CD06B460520991CEA
S315080009A0FFF778FD002885D06B469B781220A37147
S315080009B06B46DB780121E3716B461B7923726B4624
S315080009C05B796372FFF797FC002800D172E719205C
S315080009D00121FFF790FC002800D16BE76B466A46B9
S315080009E01D7070236846537007210022FFF70EFD1D
S315080009F0002800D15EE70120311CFFF74BFD0028D7
S31508000A0000D157E7A0788E3D291C221CFFF7B0FEBF
S31508000A10281C76BD1E0500202005002007B550239A
S31508000A20002201A8022103704270FFF7EFFC0120A3
S31508000A300EBD0000F7B50023071C0025214E9A19A4
S31508000A4001331570341C0A2BF7D10120FFF708FF74
S31508000A5033780190FF2B03D17378281CFF2B2FD0F6
S31508000A60E378002B09D12379002B12D16379002B67
S31508000A700FD1A07900280CD122E0FF2B09D12379C8
S31508000A80FF2B06D16379FF2B03D1A3790020FF2B17
S31508000A9016D0A2790023FF2A09D1E279FF2A06D1C6
S31508000AA0227AFF2A03D1627A181CFF2A08D0E21894
S31508000AB0D278FA540133072BF9D1FFF7AFFF019823
S31508000AC0FEBDC0461E05002008B500F085FC08BD21
S31508000AD010B50378041C132B11D1411C02221948A6
S31508000AE000F043FD2379E2781B021343FA229200B1
S31508000AF05343154A13600122144B1A700AE00E2B51
S31508000B000AD1837842781B021343FA229200534390
S31508000B100D4A1360002013E0142B0FD1042400F0B3
S31508000B2099F9013C0A4800F06BF9A4B200F098F96B
S31508000B30074800F065F9002CF1D1EBE70B2040429D
S31508000B4010BDC0460400002000000020040200205A
S31508000B50A0860100F0B5504B504C8BB0636000F096
S31508000B6085F9206000F024FC00F02CFC4C4800219C
S31508000B7000F088FB00F004FCFFF70CFDFFF7EEFD24
S31508000B8000F00AFC062802D100F064F9F8E700F044
S31508000B9067F900F079FC051E20D00368482B09D9AF
S31508000BA00830211C082200F0D1FC002804D1281C9A
S31508000BB010300FE0102B0AD9281C3A4908300222B7
S31508000BC000F0C4FC002807D1281C0A3002E0072BD5
S31508000BD002D80830FFF77CFF00F07AFC324D2B78FC
S31508000BE0002B15D1314E3368002B11D102A8031CF6
S31508000BF0221C82CA82C30C23037210334372582103
S31508000C000C3B0122837200F013FC294B1B683360EE
S31508000C102E78012E1BD1254D2B68002B17D1214983
S31508000C20022202A800F0A1FC0B2302AA9370101C52
S31508000C301133D370FFF7CEFCA02302AA9375101CBC
S31508000C40B821321C00F0F4FB194B1B682B6000F02E
S31508000C502DFC002894D0031C0A250833009303684A
S31508000C604768019300F0F6F8009801993A1C00F0DD
S31508000C702DFA061C00F0F4F8002E04D0013D00F011
S31508000C80E9F8002DEED100F0EBF8002E00D077E75A
S31508000C9000F038FC74E7C046151515154805002000
S31508000CA0C90A00080400002004020020500500209C
S31508000CB000000020034B1A68002A02D01A68013A7D
S31508000CC01A6070475005002001213F4B10B51A687D
S31508000CD03E480A431A6059683D4A0A405A601968EC
S31508000CE03C4A0A401A6019683B4A0A401A60596821
S31508000CF03A4A0A400F215A60DA6A8A43DA62196B5D
S31508000D00374A0A401A63596B364A0A405A63002220
S31508000D1035499A60013ACA67C02149004250334AA8
S31508000D207039FF39116080215A6849025A601A6879
S31508000D300A431A601A6824499203FBD548682C4A64
S31508000D40024088204003024380204A600A68400423
S31508000D5002430A601A681C499201FBD503204A68B7
S31508000D608243013802434A600C22596816481140EA
S31508000D700829F9D1802243699202134382249022DA
S31508000D8043610023D205E404536114608024E4001F
S31508000D905460802464039360D46080241362536291
S31508000DA04269E40222434261124A536111600831E2
S31508000DB053609360D36011620F4A10495160936083
S31508000DC00333136010BDC0460010024000E100E086
S31508000DD00CB8FF80FFFFF6FEFFFFFBFFFF7FC0FF9B
S31508000DE0ACFEFFFFFEFFFEFF04E100E0002002402C
S31508000DF0FFFFC0FF0004004810E000E06F17000086
S31508000E00013809D30423C046C046C046C046C0467A
S31508000E10013B002BF7D1F3E77047000038B5902463
S31508000E208025E405AD01A5610348FFF7E9FFA56242
S31508000E300148FFF7E5FFF2E7E093040080229023DC
S31508000E409201DB059A617047802290239201DB05A7
S31508000E509A627047802290239201DB059A61704757
S31508000E60802290239201DB059A627047042210B50E
S31508000E700F4B10481968CBB258400F4B013A5843EC
S31508000E80090A002AF7D10D4A11680422CCB260403B
S31508000E90013A5843090A002AF8D1094A1168042276
S31508000EA0CCB26040013A5843090A002AF8D110BD6D
S31508000EB0ACF7FF1FC59D1C8193010001B0F7FF1F0A
S31508000EC0C0F7FF1F80234349434A9B0070B5486A11
S31508000ED0902653610022F6054A6232693F4C520554
S31508000EE005D4FB3BFF3B237003330B6071E0012500
S31508000EF00A682A4052D0326981B2134004D01722B8
S31508000F008A429B415B4202E046228A425B41227842
S31508000F10DB01D2B2012A1DD0022A5AD1304A106802
S31508000F20FF280CD82F49C208895C07220240914045
S31508000F300A1C80210A409A422BD0042304E02A4A3C
S31508000F4012789A4225D0052300222370274B1A606F
S31508000F505A621EE0224A26491068FF2812D80A78E3
S31508000F605A40D2B254B25200002C01DA63246240CD
S31508000F700A700722024013411E4CC108625C1343E3
S31508000F80635406E0FF220A70F0211B4A11701B4ABF
S31508000F901370134A1368013313601AE009200860B6
S31508000FA03169194213D001210D4B49421960114B81
S31508000FB01A605A609A60DA601A615A619A61DA614F
S31508000FC0FFF73CFF2378002B03D1257001E00323AC
S31508000FD0237070BD00480140000401402C02002027
S31508000FE04002002044020020640200200004004061
S31508000FF06C02002008020020650200203C02002046
S315080010000022294B70B51A619022D2051169274C26
S31508001010490503D406222270033205E012699205B7
S3150800102004D50322227006321A603CE02078013883
S31508001030042834D800F080FA032E333030001C4BD5
S315080010401968082901D81B4B1CE00A1C093AF62A1C
S3150800105017D8194A1278002A13D1164A1568002D8E
S315080010601DD008391960072314480B4005D0FF2204
S31508001070DA40CE08835D93438355114B1A78A84707
S315080010800DE0104B1B68002B09D00D4A0B4812784F
S31508001090984704E0002200E022780B4B1A700023E0
S315080010A02370FFF7D1FE70BD004801402C020020D6
S315080010B040020020280200206C02002008020020BE
S315080010C03C0200203002002034020020F0B54B1EFE
S315080010D085B003900292F72B00D98CE001220A40D2
S315080010E000D088E0FF23141C01918C421AD0039883
S315080010F0E710C05D072684468020051C264035413A
S315080011002E1C65462E4200D0434018405B0000283E
S3150800111001D063204340600702D165463848C5556B
S315080011200134E2E7082900D908225418019AA24294
S3150800113014D20721019A324FD61011408022101C72
S31508001140C84084461A406546CA40B85D5B00A84355
S315080011501043019AB85501320192E7E7FA27BF0012
S31508001160284D2E78F6B2002E0CD00A20013FFFF744
S3150800117047FE002FF4D1052E01D97F203CE0224BF3
S3150800118098573AE0029A214B002A03D0802212216E
S315080011901A7003E06A465321127A1A7000221C4B11
S315080011A01A601C4B1C601C4BFA241E1C5A621A61DE
S315080011B006321A640332D9621A60073A2A70E400C2
S315080011C02B78022B10D10520013CFFF719FE002CC5
S315080011D0F6D190233460DB0574621B695B0500D485
S315080011E006342C70062007E00C4B1B78052BC4D858
S315080011F0054AD05601E00520404205B0F0BDC0467C
S31508001200440200202C0200207C15000864020020FD
S315080012103802002068020020000400403402002042
S3150800122000201449144AF0B50B6810611348006889
S3150800123083421ED2072480201C40E040041C104D27
S31508001240D8082E5C1920264200D113380726802795
S315080012505C1C26401064E4082D5DF740041C4D34E0
S315080012603D4201D00C30041C09200233D4621060C0
S315080012700B60F0BD38020020000400406802002020
S3150800128044020020F7B50090019172B601201E2491
S31508001290304A31499369034393610B69A3430B6150
S315080012A02E4BE3341968FF342143196099682143AA
S315080012B09960D9682143D9600534294BFF341959F7
S315080012C00902090A1951802119600224D1690826E0
S315080012D02143D1612F2500210627224C2660616211
S315080012E0A56227644D37E762E827FF01E761802793
S315080012F07F012762C4276061BF00E060DC59251CB6
S31508001300FF24A543DD51802464021C60802794696C
S31508001310FF023C4394612F24134A16609462613499
S31508001320D462516211635061D060C52080001C5898
S315080013300E4A22401A508022D2031A600C4B009A99
S315080013401A600C4B019A1A600B4B19700B4B1970EB
S3150800135062B6F7BD001002400000014000040140DB
S3150800136000E100E00004004000480140FFFF00FFE4
S3150800137028020020300200202C020020340200201F
S3150800138080229023D200DB059A610022014B1A7055
S315080013907047C0462C0200209023DB051B690620F7
S315080013A05B0502D5014B1878C0B270472C020020A5
S315080013B000200522024B1870DA7058709870704732
S315080013C07002002000200322024B1870DA70587051
S315080013D0987070473C030020F8B5144CCF1D63780D
S315080013E06578A678DBB2FF08EDB2002E1AD19446CE
S315080013F00A1C28367343011CE01842606246826064
S315080014003A1C0C3000F0B1F8E2786B1C934292411A
S3150800141013402278934201D10122A270DBB2637095
S31508001420002001E008204042F8BDC04670020020B6
S31508001430F8B5144CCF1D63786578A678DBB2FF083B
S31508001440EDB2002E1AD194460A1C28367343011CA5
S31508001450E0184260624682603A1C0C3000F085F85B
S31508001460E2786B1C9342924113402278934201D151
S315080014700122A270DBB26370002001E0082040421E
S31508001480F8BDC0463C030020074B187859781A1C4B
S31508001490884203D19B78DBB2181E04D02823107823
S315080014A0584310180430704770020020074B18780C
S315080014B059781A1C884203D19B78DBB2181E04D0CF
S315080014C02823107858431018043070473C0300202E
S315080014D00B4A13785078DBB2111C834202D19278FA
S315080014E0002A09D0CA78013393429241002013405A
S315080014F0DBB288700B7001E0092040427047C04695
S31508001500700200200B4A13785078DBB2111C834214
S3150800151002D19278002A09D0CA78013393429241BF
S3150800152000201340DBB288700B7001E009204042AE
S315080015307047C0463C03002002B47146490849007A
S31508001540095C49008E4402BC7047C04630B5002489
S31508001550944208D0035D651C0C5DA34201D0181B9C
S3150800156002E02C1CF4E7002030BD002310B593429E
S3150800157003D0CC5CC4540133F9E710BD00FEFEFF6E
S30908001580FDFC000060
S30D08001584E8030000FFFF000068
S705080000C131
