S01100004465765F736D6F6B652E7372656376
S3150800000000100020C10000080D010008F9070008CB
S3150800001000000000000000000000000000000000D2
S315080000200000000000000000000000000D010008AC
S3150800003000000000000000000D01000891060008FD
S315080000400D0100080D0100080D0100080D0100084A
S315080000500D0100080D0100080D010008C10800087F
S315080000600D0100080D0100080D0100080D0100082A
S315080000700D0100080D0100080D0100080D0100081A
S315080000801D0C00080D0100080D0100080D010008EF
S315080000900D0100080D010008FD0900080D01000802
S315080000A00D0100080D0100080D0100080D010008EA
S315080000B00D0100080D0100080D0100080D010008DA
S315080000C00C4885460C480D490D4A002302E0D458D1
S315080000D0C4500433C4188C42F9D30A4A0A4C002384
S315080000E001E013600432A242FBD300F0DBFA00F011
S315080000F055F8FEE700100020000000200800002048
S31508000100900F00080800002058030020FEE708B5F5
S3150800011000F060FE08BD000010B50378041C132B20
S3150800012011D1411C0222194800F01DFF2379E278FB
S315080001301B021343FA2292005343154A1360012205
S31508000140144B1A700AE00E2B0AD1837842781B02E8
S315080001501343FA22920053430D4A1360002013E01A
S31508000160142B0FD1042400F06AFB013C0A4800F066
S3150800017035FBA4B200F069FB074800F02FFB002C02
S31508000180F1D1EBE70B20404210BDC0460400002029
S315080001900000002008000020A0860100F0B5524BA0
S315080001A0524C8BB0636000F05FFB206000F0FEFDF0
S315080001B000F006FE00214E4800F062FD00F0DEFD6C
S315080001C000F00AF990228021D20593690B439361C6
S315080001D000F0E0FD062802D100F031FBF8E700F058
S315080001E034FB00F04FFE051E20D00368482B09D9C2
S315080001F00830211C082200F0A7FE002804D1281C7C
S3150800020010300FE0102B0AD9281C3A490830022270
S3150800021000F09AFE002807D1281C0A3002E0072BB6
S3150800022002D80830FFF778FF00F050FE324D2B78E1
S31508000230002B15D1314E3368002B11D102A8031CAF
S31508000240221C82CA82C30C2303720E3343725821BE
S315080002500A3B0122837200F0E9FD294B1B683360D3
S315080002602E78012E1CD1254D2B68002B18D121493B
S31508000270022202A800F077FE0B2302AA93700F331E
S31508000280D37000F02BF902AB1871182302AA537128
S31508000290101C3021321C00F0C9FD194B1B682B605D
S315080002A000F002FE002893D0031C0A2508330093A9
S315080002B003684768019300F0C2FA009801993A1C4E
S315080002C000F002FC061C00F0C0FA002E04D0013D26
S315080002D000F0B5FA002DEED100F0B7FA002E00D0E6
S315080002E076E700F00DFE73E715151515BC0100201D
S315080002F00F01000804000020080000205403002015
S3150800030000000020CB0103D58068044B184000E0AC
S3150800031000680840411E8841C0B27047FFFFFFFED3
S315080003208021826809060A43F021031C82600902BB
S315080003309A680139D20FD207002901D0002AF7D1CD
S3150800034000209A68824200DB186C70470421074A2D
S3150800035010B593680B439360044C0421201CFFF7E7
S31508000360D1FF0028F8D0206C80B210BD00240140CF
S3150800037070B54B1E9BB2002B0ED0021C5C000419F4
S31508000380A24207D015885688B54201D916805580ED
S315080003900232F5E7013BEDE749084900405A70BDCE
S315080003A038B50024FFF7D2FF0A4D285396200234A9
S315080003B0400000F013FAC82CF4D1281C6421FFF77A
S315080003C0D7FFC822041C0021281C520000F0D4FDC7
S315080003D0201C38BDC40100208021134B89025A69AC
S315080003E010B50A4390215A61C9050A680F48104C8E
S315080003F002430A6080219A6989000A439A610823A0
S31508000400E1680C4A201C0A40E260A26A1A43A2620A
S315080004100722094B0B4013436361FFF781FF012253
S31508000420A3681343A36010BD0010024015400000E6
S315080004300024014003D2FFFF00D2FFFF90220721CC
S31508000440D205936A0B439362704790230121DB051B
S315080004509A690A439A619A6A05310A439A62704709
S3150800046090230221DB059A690A439A619A6A033145
S315080004700A439A62704790230321DB059A690A4367
S315080004809A619A6A01310A439A6270479023042155
S31508000490DB059A690A439A619A6A01390A439A629C
S315080004A0704790230521DB059A690A439A619A6A7F
S315080004B003390A439A62704790230621DB059A6935
S315080004C00A439A619A6A05390A439A6270479022E2
S315080004D00721D20593690B439361704738B5FFF737
S315080004E0ADFF052000F098F9FA25FFF759FFAD0092
S315080004F00024A8420DD900F0AEF9962000F08CF938
S3150800050000F0A9F9962000F087F9281C00F084F974
S315080005100134FFF79AFF052000F07EF9FFF740FF48
S31508000520FA239B0098420FD9022304251C43013D58
S3150800053000F091F9ADB2962000F06EF9002DF6D1D3
S31508000540FA20800000F068F9FFF78AFF052000F01E
S3150800055063F9FFF725FFFA239B0098420FD9042376
S3150800056006251C43013D00F076F9ADB2962000F051
S3150800057053F9002DF6D1FA20800000F04DF9FFF767
S315080005807AFF052000F048F9FFF70AFFFA239B00D7
S3150800059098420ED908252C43013D00F05CF9ADB20E
S315080005A0962000F039F9002DF6D1FA20800000F0E7
S315080005B033F9FFF76BFF052000F02EF9FFF7F0FE81
S315080005C0FA239B0098420FD910230A251C43013DA4
S315080005D000F041F9ADB2962000F01EF9002DF6D1D3
S315080005E0FA20800000F018F9FFF75BFF052000F0FD
S315080005F013F9FFF7D5FEFA239B0098420FD920235B
S315080006000C251C43013D00F026F9ADB2962000F0FA
S3150800061003F9002DF6D1FA20800000F0FDF8FFF767
S315080006204BFF052000F0F8F8FFF7BAFEFA239B0007
S3150800063098420FD940230E251C43013D00F00BF9C3
S31508000640ADB2962000F0E8F8002DF6D1FA20800029
S3150800065000F0E2F8FFF73BFF052000F0DDF8FFF7B2
S315080006609FFEFA239B0098420FD9802310251C432E
S31508000670013D00F0F0F8ADB2962000F0CDF8002D5F
S31508000680F6D1FA20800000F0C7F8201C38BD00001B
S31508000690034B1A68002A02D01A68013A1A60704792
S315080006A05403002001213F4B10B51A683E480A43FF
S315080006B01A6059683D4A0A405A6019683C4A0A4015
S315080006C01A6019683B4A0A401A6059683A4A0A4049
S315080006D00F215A60DA6A8A43DA62196B374A0A4086
S315080006E01A63596B364A0A405A63002235499A609A
S315080006F0013ACA67C02149004250334A7039FF3966
S31508000700116080215A6849025A601A680A431A60B9
S315080007101A6824499203FBD548682C4A0240882067
S315080007204003024380204A600A68400402430A6084
S315080007301A681C499201FBD503204A68824301388E
S3150800074002434A600C225968164811400829F9D113
S315080007508022436992021343822490224361002334
S31508000760D205E404536114608024E40054608024B4
S3150800077064039360D4608024136253624269E4027E
S3150800078022434261124A53611160083153609360F3
S31508000790D36011620F4A10495160936003331360A6
S315080007A010BDC0460010024000E100E00CB8FF8012
S315080007B0FFFFF6FEFFFFFBFFFF7FC0FFACFEFFFF5C
S315080007C0FEFFFEFF04E100E000200240FFFFC0FF3D
S315080007D00004004810E000E06F170000013809D354
S315080007E00423C046C046C046C046C046013B002B4F
S315080007F0F7D1F3E77047000038B590248025E40563
S31508000800AD01A5610348FFF7E9FFA5620148FFF7B7
S31508000810E5FFF2E7E093040008B5FA239B00584386
S31508000820FFF7DCFF08BD802290239201DB059A6161
S315080008307047802290239201DB059A6270478022D6
S3150800084090239201DB059A617047802290239201DA
S31508000850DB059A62704790228021D2055369890187
S315080008604B40536170470000042210B50F4B1048E7
S315080008701968CBB258400F4B013A5843090A002A67
S31508000880F7D10D4A11680422CCB26040013A5843A8
S31508000890090A002AF8D1094A11680422CCB2604034
S315080008A0013A5843090A002AF8D110BDACF7FF1FD0
S315080008B0C59D1C8193010001B0F7FF1FC0F7FF1FFC
S315080008C080234349434A9B0070B5486A9026536182
S315080008D00022F6054A6232693F4C520505D4FB3BB5
S315080008E0FF3B237003330B6071E001250A682A4039
S315080008F052D0326981B2134004D017228A429B41F2
S315080009005B4202E046228A425B412278DB01D2B290
S31508000910012A1DD0022A5AD1304A1068FF280CD85D
S315080009202F49C208895C0722024091400A1C80218F
S315080009300A409A422BD0042304E02A4A12789A42A3
S3150800094025D0052300222370274B1A605A621EE021
S31508000950224A26491068FF2812D80A785A40D2B285
S3150800096054B25200002C01DA632462400A7007224E
S31508000970024013411E4CC108625C1343635406E0EF
S31508000980FF220A70F0211B4A11701B4A1370134A82
S315080009901368013313601AE00920086031691942A7
S315080009A013D001210D4B49421960114B1A605A6048
S315080009B09A60DA601A615A619A61DA61FFF733FF61
S315080009C02378002B03D1257001E00323237070BD23
S315080009D00048014000040140300000204400002087
S315080009E04800002068000020000400407000002035
S315080009F00C00002069000020400000200022294B3E
S31508000A0070B51A619022D2051169274C490503D49D
S31508000A1006222270033205E01269920504D50322E4
S31508000A20227006321A603CE020780138042834D84F
S31508000A3000F080FA032E333030001C4B1968082961
S31508000A4001D81B4B1CE00A1C093AF62A17D8194A82
S31508000A501278002A13D1164A1568002D1DD00839B8
S31508000A601960072314480B4005D0FF22DA40CE0848
S31508000A70835D93438355114B1A78A8470DE0104BB5
S31508000A801B68002B09D00D4A0B481278984704E0DA
S31508000A90002200E022780B4B1A7000232370FFF720
S31508000AA0C8FE70BD00480140300000204400002008
S31508000AB02C000020700000200C00002040000020C0
S31508000AC03400002038000020F0B54B1E85B0039096
S31508000AD00292F72B00D98CE001220A4000D088E068
S31508000AE0FF23141C01918C421AD00398E710C05DAD
S31508000AF0072684468020051C264035412E1C65465F
S31508000B002E4200D0434018405B00002801D06320E5
S31508000B104340600702D165463848C5550134E2E7C7
S31508000B20082900D908225418019AA24214D207218A
S31508000B30019A324FD61011408022101CC8408446B4
S31508000B401A406546CA40B85D5B00A8431043019A3F
S31508000B50B85501320192E7E7FA27BF00284D2E78EB
S31508000B60F6B2002E0CD00A20013FFFF737FE002F01
S31508000B70F4D1052E01D97F203CE0224B98573AE064
S31508000B80029A214B002A03D0802212211A7003E010
S31508000B906A465321127A1A7000221C4B1A601C4BA3
S31508000BA01C601C4BFA241E1C5A621A6106321A640F
S31508000BB00332D9621A60073A2A70E4002B78022BAE
S31508000BC010D10520013CFFF709FE002CF6D1902331
S31508000BD03460DB0574621B695B0500D406342C702F
S31508000BE0062007E00C4B1B78052BC4D8054AD056BF
S31508000BF001E00520404205B0F0BDC046480000208F
S31508000C0030000020880F0008680000203C00002003
S31508000C106C00002000040040380000200020144921
S31508000C20144AF0B50B6810611348006883421ED257
S31508000C30072480201C40E040041C104DD8082E5C78
S31508000C401920264200D11338072680275C1C264027
S31508000C501064E4082D5DF740041C4D343D4201D074
S31508000C600C30041C09200233D46210600B60F0BDFE
S31508000C703C000020000400406C00002048000020D2
S31508000C80F7B50090019172B601201E24304A314909
S31508000C909369034393610B69A3430B612E4BE334BA
S31508000CA01968FF3421431960996821439960D96806
S31508000CB02143D9600534294BFF3419590902090A19
S31508000CC01951802119600224D16908262143D1616E
S31508000CD02F2500210627224C26606162A56227641B
S31508000CE04D37E762E827FF01E76180277F01276222
S31508000CF0C4276061BF00E060DC59251CFF24A543BA
S31508000D00DD51802464021C6080279469FF023C43FD
S31508000D1094612F24134A166094626134D462516236
S31508000D2011635061D060C52080001C580E4A2240CD
S31508000D301A508022D2031A600C4B009A1A600C4B88
S31508000D40019A1A600B4B19700B4B197062B6F7BDF6
S31508000D5000100240000001400004014000E100E0EC
S31508000D600004004000480140FFFF00FF2C0000205F
S31508000D703400002030000020380000208022902314
S31508000D80D200DB059A610022014B1A707047C046F3
S31508000D90300000209023DB051B6906205B0502D581
S31508000DA0014B1878C0B27047300000200020052299
S31508000DB0024B1870DA7058709870704774000020EB
S31508000DC000200322024B1870DA705870987070472A
S31508000DD040010020F8B5144CCF1D63786578A678D5
S31508000DE0DBB2FF08EDB2002E1AD194460A1C28364B
S31508000DF07343011CE0184260624682603A1C0C305C
S31508000E0000F0B1F8E2786B1C9342924113402278C5
S31508000E10934201D10122A270DBB26370002001E087
S31508000E2008204042F8BDC04674000020F8B5144CAE
S31508000E30CF1D63786578A678DBB2FF08EDB2002E81
S31508000E401AD194460A1C28367343011CE0184260DE
S31508000E50624682603A1C0C3000F085F8E2786B1C1A
S31508000E609342924113402278934201D10122A27003
S31508000E70DBB26370002001E008204042F8BDC0469E
S31508000E8040010020074B187859781A1C884203D16C
S31508000E909B78DBB2181E04D0282310785843101804
S31508000EA00430704774000020074B187859781A1CCC
S31508000EB0884203D19B78DBB2181E04D02823107809
S31508000EC05843101804307047400100200B4A137825
S31508000ED05078DBB2111C834202D19278002A09D0DD
S31508000EE0CA7801339342924100201340DBB28870DE
S31508000EF00B7001E0092040427047C046740000208C
S31508000F000B4A13785078DBB2111C834202D19278CF
S31508000F10002A09D0CA78013393429241002013402F
S31508000F20DBB288700B7001E0092040427047C0466A
S31508000F304001002002B4714649084900095C49008D
S31508000F408E4402BC7047C04630B50024944208D08F
S31508000F50035D651C0C5DA34201D0181B02E02C1C26
S31508000F60F4E7002030BD002310B5934203D0CC5CD3
S31508000F70C4540133F9E710BD031C8218934202D00A
S31508000F8019700133FAE7704700FEFEFFFDFC00000A
S30D08000F90E8030000FFFF000062
S705080000C131
