S00D0000536972656E2E7372656316
S3150800000000100020C10000080D010008690400085E
S3150800001000000000000000000000000000000000D2
S315080000200000000000000000000000000D010008AC
S3150800003000000000000000000D0100080103000890
S315080000400D0100080D0100080D0100080D0100084A
S315080000500D0100080D0100080D010008390500080A
S315080000600D0100080D0100080D0100080D0100082A
S315080000700D0100080D0100080D0100080D0100081A
S31508000080950800080D0100080D0100080D0100087B
S315080000900D0100080D010008750600080D0100088D
S315080000A00D0100080D0100080D0100080D010008EA
S315080000B00D0100080D0100080D0100080D010008DA
S315080000C00C4885460C480D490D4A002302E0D458D1
S315080000D0C4500433C4188C42F9D30A4A0A4C002384
S315080000E001E013600432A242FBD300F013F900F0DA
S315080000F05DF8FEE700100020000000200800002040
S31508000100F80B000808000020C8010020FEE708B523
S3150800011000F09CFC08BD000010B50378041C132BE6
S3150800012011D1411C02221D4800F059FD2379E278BD
S315080001301B021343FA2292005343194A1360012201
S31508000140184B1A700AE00E2B0AD1837842781B02E4
S315080001501343FA2292005343114A136000201BE00E
S31508000160142B17D1042400F0A2F9013C0E4800F024
S315080001706DF9A4B200F0A1F90B4800F067F9002C5C
S31508000180F1D100F0A0F9FA20C00000F07DF900F0E6
S315080001909FF9E3E70B20404210BDC046040000204B
S315080001A00000002008000020A0860100F0B54D4B95
S315080001B04D4C8BB0636000F091F9206000F032FC82
S315080001C000F03AFC4948002100F096FB00F012FCCA
S315080001D000F01CFC062802D100F069F9F8E700F0E7
S315080001E06CF900F08BFC051E20D00368482B09D952
S315080001F00830211C082200F0E3FC002804D1281C42
S3150800020010300FE0102B0AD9281C39490830022271
S3150800021000F0D6FC002807D1281C0A3002E0072B7C
S3150800022002D80830FFF778FF00F08CFC314D2B78A8
S31508000230002B15D1304E3368002B11D102A8031CB0
S31508000240221C82CA82C30C230372DB18437258210C
S31508000250083B0122837200F025FC284B1B6833609B
S315080002602E78012E1AD1244D2B68002B16D1204941
S31508000270022202A800F0B3FC18270B2302AA9370E7
S31508000280D77000F057F902AB18713021181C321CD0
S315080002905F7100F007FC194B1B682B6000F040FCEF
S315080002A0002895D0031C0A2508330093036847687D
S315080002B0019300F0FCF8009801993A1C00F040FA06
S315080002C0061C00F0FAF8002E04D0013D00F0EFF805
S315080002D0002DEED100F0F1F8002E00D078E700F0FE
S315080002E04BFC75E715151515BC0100200F01000814
S315080002F00400002008000020C4010020000000209F
S31508000300034B1A68002A02D01A68013A1A60704725
S31508000310C401002001213E4B10B51A683D480A4326
S315080003201A6059683C4A0A405A6019683B4A0A40AA
S315080003301A6019683A4A0A401A605968394A0A40DE
S315080003400F215A60DA6A8A43DA62196B364A0A401A
S315080003501A63596B354A0A405A63002234499A602F
S31508000360013ACA67C02149004250324A7039FF39FA
S31508000370116080215A6849025A601A680A431A604D
S315080003801A6823499203FBD548682B4A02408820FD
S315080003904003024380204A600A68400402430A6018
S315080003A01A681B499201FBD503204A688243013823
S315080003B002434A600C225968154811400829F9D1A8
S315080003C080224369920213439022436100231B4C07
S315080003D0D205536114608024E400546080246403C9
S315080003E09360D4608024136253624269E402224314
S315080003F04261134A53611160083153609360D360B8
S315080004001162104A1049516093600333136010BD9E
S315080004100010024000E100E00CB8FF80FFFFF6FE86
S31508000420FFFFFBFFFF7FC0FFACFEFFFFFEFFFEFFE7
S3150800043004E100E000200240FFFFC0FF01001004B5
S315080004400004004810E000E06F170000013809D3E7
S315080004500423C046C046C046C046C046013B002BE2
S31508000460F7D1F3E77047000038B590248025E405F6
S31508000470AD01A5610348FFF7E9FFA5620148FFF74B
S31508000480E5FFF2E7E093040008B5FA239B0058431A
S31508000490FFF7DCFF08BD802290239201DB059A61F5
S315080004A07047802290239201DB059A62704780226A
S315080004B090239201DB059A6170478022902392016E
S315080004C0DB059A62704790230122DB059A61704723
S315080004D090230122DB059A6270470000042210B5BA
S315080004E00F4B10481968CBB258400F4B013A584386
S315080004F0090A002AF7D10D4A11680422CCB26040D5
S31508000500013A5843090A002AF8D1094A116804220F
S31508000510CCB26040013A5843090A002AF8D110BD06
S31508000520ACF7FF1FC59D1C8193010001B0F7FF1FA3
S31508000530C0F7FF1F0020704780234349434A9B00AA
S3150800054070B5486A902653610022F6054A623269F8
S315080005503F4C520505D4FB3BFF3B237003330B602E
S3150800056071E001250A682A4052D0326981B21340E7
S3150800057004D017228A429B415B4202E046228A4205
S315080005805B412278DB01D2B2012A1DD0022A5AD158
S31508000590304A1068FF280CD82F49C208895C072200
S315080005A0024091400A1C80210A409A422BD004231B
S315080005B004E02A4A12789A4225D00523002223709D
S315080005C0274B1A605A621EE0224A26491068FF28FD
S315080005D012D80A785A40D2B254B25200002C01DA24
S315080005E0632462400A700722024013411E4CC10868
S315080005F0625C1343635406E0FF220A70F0211B4A2B
S3150800060011701B4A1370134A1368013313601AE0FA
S31508000610092008603169194213D001210D4B49425E
S315080006201960114B1A605A609A60DA601A615A6149
S315080006309A61DA61FFF72FFF2378002B03D1257023
S3150800064001E00323237070BD004801400004014007
S3150800065030000020440000204800002068000020E8
S3150800066000040040700000200C00002069000020F3
S31508000670400000200022294B70B51A619022D2054D
S315080006801169274C490503D406222270033205E076
S315080006901269920504D50322227006321A603CE0DC
S315080006A020780138042834D800F080FA032E333035
S315080006B030001C4B1968082901D81B4B1CE00A1C82
S315080006C0093AF62A17D8194A1278002A13D1164A6F
S315080006D01568002D1DD008391960072314480B40EA
S315080006E005D0FF22DA40CE08835D93438355114B2C
S315080006F01A78A8470DE0104B1B68002B09D00D4A45
S315080007000B481278984704E0002200E022780B4B49
S315080007101A7000232370FFF7C4FE70BD004801401D
S3150800072030000020440000202C000020700000202B
S315080007300C00002040000020340000203800002073
S31508000740F0B54B1E85B003900292F72B00D98CE0CA
S3150800075001220A4000D088E0FF23141C01918C4234
S315080007601AD00398E710C05D072684468020051C2A
S31508000770264035412E1C65462E4200D0434018407F
S315080007805B00002801D063204340600702D165461C
S315080007903848C5550134E2E7082900D90822541813
S315080007A0019AA24214D20721019A324FD61011405B
S315080007B08022101CC84084461A406546CA40B85D67
S315080007C05B00A8431043019AB85501320192E7E746
S315080007D0FA27BF00284D2E78F6B2002E0CD00A2034
S315080007E0013FFFF733FE002FF4D1052E01D97F20F4
S315080007F03CE0224B98573AE0029A214B002A03D054
S31508000800802212211A7003E06A465321127A1A705E
S3150800081000221C4B1A601C4B1C601C4BFA241E1C25
S315080008205A621A6106321A640332D9621A60073AA2
S315080008302A70E4002B78022B10D10520013CFFF723
S3150800084005FE002CF6D190233460DB0574621B6923
S315080008505B0500D406342C70062007E00C4B1B7889
S31508000860052BC4D8054AD05601E00520404205B0FC
S31508000870F0BDC0464800002030000020F00B0008FC
S31508000880680000203C0000206C00002000040040A6
S315080008903800002000201449144AF0B50B6810618E
S315080008A01348006883421ED2072480201C40E0407B
S315080008B0041C104DD8082E5C1920264200D1133886
S315080008C0072680275C1C26401064E4082D5DF74047
S315080008D0041C4D343D4201D00C30041C092002335F
S315080008E0D46210600B60F0BD3C000020000400409C
S315080008F06C00002048000020F7B50090019172B600
S3150800090001201E24304A31499369034393610B69D8
S31508000910A3430B612E4BE3341968FF342143196056
S31508000920996821439960D9682143D9600534294BD0
S31508000930FF3419590902090A19518021196002243C
S31508000940D16908262143D1612F2500210627224C8B
S3150800095026606162A56227644D37E762E827FF01D2
S31508000960E76180277F012762C4276061BF00E060D6
S31508000970DC59251CFF24A543DD51802464021C6034
S3150800098080279469FF023C4394612F24134A16601A
S3150800099094626134D462516211635061D060C5209B
S315080009A080001C580E4A22401A508022D2031A6030
S315080009B00C4B009A1A600C4B019A1A600B4B197073
S315080009C00B4B197062B6F7BD0010024000000140DB
S315080009D00004014000E100E0000400400048014036
S315080009E0FFFF00FF2C00002034000020300000200C
S315080009F03800002080229023D200DB059A6100226D
S31508000A00014B1A707047C046300000209023DB0562
S31508000A101B6906205B0502D5014B1878C0B27047E2
S31508000A203000002000200522024B1870DA7058703A
S31508000A30987070477400002000200322024B18703B
S31508000A40DA7058709870704740010020F8B5144C59
S31508000A50CF1D63786578A678DBB2FF08EDB2002E65
S31508000A601AD194460A1C28367343011CE0184260C2
S31508000A70624682603A1C0C3000F0B1F8E2786B1CD2
S31508000A809342924113402278934201D10122A270E7
S31508000A90DBB26370002001E008204042F8BDC04682
S31508000AA074000020F8B5144CCF1D63786578A678D5
S31508000AB0DBB2FF08EDB2002E1AD194460A1C28367E
S31508000AC07343011CE0184260624682603A1C0C308F
S31508000AD000F085F8E2786B1C934292411340227825
S31508000AE0934201D10122A270DBB26370002001E0BB
S31508000AF008204042F8BDC04640010020074B187840
S31508000B0059781A1C884203D19B78DBB2181E04D088
S31508000B1028231078584310180430704774000020B2
S31508000B20074B187859781A1C884203D19B78DBB290
S31508000B30181E04D02823107858431018043070471C
S31508000B40400100200B4A13785078DBB2111C83420F
S31508000B5002D19278002A09D0CA7801339342924189
S31508000B6000201340DBB288700B7001E00920404278
S31508000B707047C046740000200B4A13785078DBB2E1
S31508000B80111C834202D19278002A09D0CA7801330F
S31508000B909342924100201340DBB288700B7001E04B
S31508000BA0092040427047C0464001002002B4714601
S31508000BB049084900095C49008E4402BC7047C04692
S31508000BC030B50024944208D0035D651C0C5DA34231
S31508000BD001D0181B02E02C1CF4E7002030BD0023CE
S31508000BE010B5934203D0CC5CC4540133F9E710BD69
S30D08000BF000FEFEFFFDFC0000FB
S30D08000BF8E8030000FFFF0000FE
S705080000C131
